{
  "contractName": "BookStore",
  "abi": [
    {
      "inputs": [
        {
          "internalType": "string",
          "name": "_fullname",
          "type": "string"
        },
        {
          "internalType": "string",
          "name": "_discription",
          "type": "string"
        },
        {
          "internalType": "uint256",
          "name": "_price",
          "type": "uint256"
        }
      ],
      "name": "sellBook",
      "outputs": [],
      "stateMutability": "nonpayable",
      "type": "function"
    },
    {
      "inputs": [],
      "name": "getBook",
      "outputs": [
        {
          "internalType": "address",
          "name": "_sender",
          "type": "address"
        },
        {
          "internalType": "string",
          "name": "_fullname",
          "type": "string"
        },
        {
          "internalType": "string",
          "name": "_discription",
          "type": "string"
        },
        {
          "internalType": "uint256",
          "name": "_price",
          "type": "uint256"
        }
      ],
      "stateMutability": "view",
      "type": "function",
      "constant": true
    }
  ],
  "bytecode": "0x608060405234801561001057600080fd5b5061088b806100206000396000f3fe608060405234801561001057600080fd5b50600436106100365760003560e01c80633b0c197e1461003b578063cbb458a91461005c575b600080fd5b610043610078565b6040516100539493929190610324565b60405180910390f35b610076600480360381019061007191906104ec565b6101ce565b005b600060608060008060009054906101000a900473ffffffffffffffffffffffffffffffffffffffff16600160026003548280546100b4906105a6565b80601f01602080910402602001604051908101604052809291908181526020018280546100e0906105a6565b801561012d5780601f106101025761010080835404028352916020019161012d565b820191906000526020600020905b81548152906001019060200180831161011057829003601f168201915b50505050509250818054610140906105a6565b80601f016020809104026020016040519081016040528092919081815260200182805461016c906105a6565b80156101b95780601f1061018e576101008083540402835291602001916101b9565b820191906000526020600020905b81548152906001019060200180831161019c57829003601f168201915b50505050509150935093509350935090919293565b336000806101000a81548173ffffffffffffffffffffffffffffffffffffffff021916908373ffffffffffffffffffffffffffffffffffffffff160217905550826001908161021d9190610783565b50816002908161022d9190610783565b5080600381905550505050565b600073ffffffffffffffffffffffffffffffffffffffff82169050919050565b60006102658261023a565b9050919050565b6102758161025a565b82525050565b600081519050919050565b600082825260208201905092915050565b60005b838110156102b557808201518184015260208101905061029a565b60008484015250505050565b6000601f19601f8301169050919050565b60006102dd8261027b565b6102e78185610286565b93506102f7818560208601610297565b610300816102c1565b840191505092915050565b6000819050919050565b61031e8161030b565b82525050565b6000608082019050610339600083018761026c565b818103602083015261034b81866102d2565b9050818103604083015261035f81856102d2565b905061036e6060830184610315565b95945050505050565b6000604051905090565b600080fd5b600080fd5b600080fd5b600080fd5b7f4e487b7100000000000000000000000000000000000000000000000000000000600052604160045260246000fd5b6103cd826102c1565b810181811067ffffffffffffffff821117156103ec576103eb610395565b5b80604052505050565b60006103ff610377565b905061040b82826103c4565b919050565b600067ffffffffffffffff82111561042b5761042a610395565b5b610434826102c1565b9050602081019050919050565b82818337600083830152505050565b600061046361045e84610410565b6103f5565b90508281526020810184848401111561047f5761047e610390565b5b61048a848285610441565b509392505050565b600082601f8301126104a7576104a661038b565b5b81356104b7848260208601610450565b91505092915050565b6104c98161030b565b81146104d457600080fd5b50565b6000813590506104e6816104c0565b92915050565b60008060006060848603121561050557610504610381565b5b600084013567ffffffffffffffff81111561052357610522610386565b5b61052f86828701610492565b935050602084013567ffffffffffffffff8111156105505761054f610386565b5b61055c86828701610492565b925050604061056d868287016104d7565b9150509250925092565b7f4e487b7100000000000000000000000000000000000000000000000000000000600052602260045260246000fd5b600060028204905060018216806105be57607f821691505b6020821081036105d1576105d0610577565b5b50919050565b60008190508160005260206000209050919050565b60006020601f8301049050919050565b600082821b905092915050565b6000600883026106397fffffffffffffffffffffffffffffffffffffffffffffffffffffffffffffffff826105fc565b61064386836105fc565b95508019841693508086168417925050509392505050565b6000819050919050565b600061068061067b6106768461030b565b61065b565b61030b565b9050919050565b6000819050919050565b61069a83610665565b6106ae6106a682610687565b848454610609565b825550505050565b600090565b6106c36106b6565b6106ce818484610691565b505050565b5b818110156106f2576106e76000826106bb565b6001810190506106d4565b5050565b601f82111561073757610708816105d7565b610711846105ec565b81016020851015610720578190505b61073461072c856105ec565b8301826106d3565b50505b505050565b600082821c905092915050565b600061075a6000198460080261073c565b1980831691505092915050565b60006107738383610749565b9150826002028217905092915050565b61078c8261027b565b67ffffffffffffffff8111156107a5576107a4610395565b5b6107af82546105a6565b6107ba8282856106f6565b600060209050601f8311600181146107ed57600084156107db578287015190505b6107e58582610767565b86555061084d565b601f1984166107fb866105d7565b60005b82811015610823578489015182556001820191506020850194506020810190506107fe565b86831015610840578489015161083c601f891682610749565b8355505b6001600288020188555050505b50505050505056fea2646970667358221220884e395617568a30fcdfa1ed1e6b19dcd20b3418eceeb8b86e4874ec5ee072a864736f6c63430008110033",
  "immutableReferences": {},
  "source": "// SPDX-License-Identifier: GPL-3.0\r\npragma solidity >=0.7.0 <0.9.0;\r\n\r\ncontract BookStore {\r\n\r\n  address sender;\r\n  string fullname;\r\n  string discription;\r\n  uint price;\r\n\r\nfunction sellBook(string memory _fullname,string memory _discription, uint _price) public {\r\n          sender = msg.sender;\r\n          fullname = _fullname;\r\n          discription = _discription;\r\n          price = _price;\r\n  }\r\n\r\nfunction getBook() public view returns(\r\n  address _sender,\r\n  string memory _fullname,\r\n  string memory _discription,\r\n  uint _price\r\n){\r\n      return(sender, fullname, discription, price);\r\n  }\r\n\r\n}",
  "sourcePath": "F:\\Tek-Up\\Cours\\Cours_TEK-UP_2022-2023\\Blockchain\\Project-BlockChain\\solidity\\mytruffle\\contracts\\BookStore.sol",
  "compiler": {
    "name": "solc",
    "version": "0.8.17+commit.8df45f5f.Emscripten.clang"
  },
  "schemaVersion": "3.4.11",
  "updatedAt": "2022-12-23T17:56:38.006Z",
  "networkType": "ethereum",
  "devdoc": {
    "kind": "dev",
    "methods": {},
    "version": 1
  },
  "userdoc": {
    "kind": "user",
    "methods": {},
    "version": 1
  }
}